:100000000A128A116F2A00308A000408840A8207C3
:10001000003443347934743472346F346E342034A1
:1000200046346C3465347834693462346F347434F3
:10003000003441346E347434693463346C346F3456
:1000400063346B3477346934733465340034413449
:100050006C3470346834613420344D346F3464341B
:1000600065343F34003442346534743461342034B0
:100070004D346F34643465343F34003443346C346D
:100080006F3463346B3477346934733465340034DB
:100090004434653467347234653465340034433431
:1000A0007934743472346F346E34003453347434AD
:1000B0006F347034003433343034303400343234FC
:1000C0003134303400343134323430340034333469
:1000D0003334303400343234343430340034313456
:1000E0003534303400343234373430340034313441
:1000F0003834303400343634303400343934303429
:020100000034C9
:1004DE00A001A10183010A128A11182E831203139F
:1004EE000710871107128712861106124E30FD0073
:1004FE007D08FB0008300A128A11CF240A128A11D5
:10050E00080001300A128A11BC230A128A11003027
:10051E00F3000030F2000230F1005830F0000A1201
:10052E008A119F240A128A110800F0007018A02A5E
:10053E00A42A831203130714A72A83120313071086
:10054E00F0080319AB2AAF2A831203138715B22AB8
:10055E008312031387110800F0007018B72ABB2A04
:10056E00831203130716BE2A831203130712F00811
:10057E000319C22AC62A831203138716C92A8312A5
:10058E00031387120800F000F0080319CF2AD32AAC
:10059E00831203138615D62A83120313861170183D
:1005AE00D92ADD2A831203130616E02A83120313B7
:1005BE0006120800FA0010307A020318E72AE82A19
:1005CE00F02A7A08803E0A128A11BC230A128A1176
:1005DE00FD2A7A08EC3EF9007908FA007A08C03E46
:1005EE000A128A11BC230A128A11FD2A0800FF3052
:1005FE00831203139B00950083160313950101309C
:10060E000A128A119C220A128A1100300A128A11C9
:10061E00B3220A128A114030FD007D08FB005530CE
:10062E000A128A11CF240A128A110800FF3083128F
:10063E0003139B00950083160313950100300A12D5
:10064E008A119C220A128A1101300A128A11B322CF
:10065E000A128A114030FD007D08FB006F300A122D
:10066E008A11CF240A128A110800831203139501EE
:10067E00FF309B00FF3083160313950000300A12E3
:10068E008A11B3220A128A1101300A128A11CA2261
:10069E000A128A114030FD007D08FB005F300A12FD
:1006AE008A11CF240A128A110800FF308312031315
:1006BE0095009B01FF3083160313950001300A123B
:1006CE008A119C220A128A1100300A128A11CA2239
:1006DE000A128A114030FD007D08FB0060300A12BC
:1006EE008A11CF240A128A1108008312031395016E
:1006FE00FF309B00FF3083160313950001300A1262
:10070E008A11B3220A128A1100300A128A11CA22E1
:10071E000A128A114030FD007D08FB0067300A1274
:10072E008A11CF240A128A110800FF308312031394
:10073E0095009B01FF3083160313950000300A12BB
:10074E008A119C220A128A1101300A128A11CA22B7
:10075E000A128A114030FD007D08FB0057300A1244
:10076E008A11CF240A128A110800F800831203138B
:10077E0086137808880006170030F3000030F20068
:10078E000030F1003230F0000A128A119F240A1252
:10079E008A118312031306130030F3000030F200A7
:1007AE000030F1003230F0000A128A119F240A1232
:1007BE008A110800F8008312031386177808880040
:1007CE0006170030F3000030F2000030F1000A305E
:1007DE00F0000A128A119F240A128A11831203133F
:1007EE0006130030F3000030F2000030F1000A3042
:1007FE00F0000A128A119F240A128A110800FF3093
:10080E00831603139500831203139B00950001308A
:10081E000A128A119C220A128A1101300A128A11B6
:10082E00B3220A128A1101300A128A11CA220A123E
:10083E008A115630FD007D08FB0036300A128A11EF
:10084E00CF240A128A110800FA003E2C7A0884007E
:10085E000A128A1103200A128A110A128A11E1233E
:10086E000A128A110130F9007908FA073E2C7A082B
:10087E00031D422C502C7A0884000A128A11032080
:10088E000A128A110038031D4D2C4E2C2D2C502C83
:10089E00502C0800BE30831203139500BE309B000F
:1008AE00FF3083160313950000300A128A119C2222
:1008BE000A128A1100300A128A11B3220A128A1100
:1008CE0001300A128A11CA220A128A114030FD0022
:1008DE007D08FB006B300A128A11CF240A128A118E
:1008EE000800BE30831203139500BE309B00FF300C
:1008FE0083160313950001300A128A119C220A12E4
:10090E008A1101300A128A11B3220A128A1100309A
:10091E000A128A11CA220A128A114030FD007D087D
:10092E00FB0076300A128A11CF240A128A110800AF
:10093E007308720471047004031DA62CA72CA92C35
:10094E00CE2CCE2C0130F4000030F5000030F60035
:10095E000030F7007408F0027508031C750FB82CF0
:10096E00B92CF1027608031C760FBE2CBF2CF202B6
:10097E007708031C770FC42CC52CF302730872047E
:10098E0071047004031DCC2CCD2CA92CCE2C080088
:10099E00FC008312031385110518D62CD72CD92CE5
:1009AE00032D032D0A128A1188220A128A11003091
:1009BE000A128A11E1220A128A117C080A128A117D
:1009CE002B240A128A1114300A128A11E1220A12F9
:1009DE008A117B080A128A112B240A128A110030FE
:1009EE00F3000030F2002730F1001030F0000A1250
:1009FE008A119F240A128A110800842D0A128A1164
:100A0E0051240A128A110030F3000330F2000D3027
:100A1E00F1004030F0000A128A119F240A128A1146
:100A2E000A128A11FE220A128A110030F3000330D4
:100A3E00F2000D30F1004030F0000A128A119F24AE
:100A4E000A128A110A128A1178240A128A110030A7
:100A5E00F3000630F2001A30F1008030F0000A1276
:100A6E008A119F240A128A110A128A111D230A1250
:100A7E008A110030F3000330F2000D30F1004030E7
:100A8E00F0000A128A119F240A128A110A128A1180
:100A9E0051240A128A110030F3000330F2000D3097
:100AAE00F1004030F0000A128A119F240A128A11B6
:100ABE000A128A1106240A128A110030F30001303C
:100ACE00F2008630F100A030F0000A128A119F2445
:100ADE000A128A110A128A1175220A128A1100301C
:100AEE00F3000730F200A130F1002030F0000A12BE
:100AFE008A119F240A128A11842D8312031320084F
:100B0E00013A03198B2D8C2D052D8D2D08000E2EDF
:100B1E000A128A113C230A128A110030F3000330A4
:100B2E00F2000D30F1004030F0000A128A119F24BD
:100B3E000A128A110A128A11FE220A128A11003032
:100B4E00F3000330F2000D30F1004030F0000A12D5
:100B5E008A119F240A128A110A128A115C230A1220
:100B6E008A110030F3000330F2000D30F1004030F6
:100B7E00F0000A128A119F240A128A110A128A118F
:100B8E007C230A128A110030F3000330F2000D307C
:100B9E00F1004030F0000A128A119F240A128A11C5
:100BAE000A128A111D230A128A110030F300033033
:100BBE00F2000D30F1004030F0000A128A119F242D
:100BCE000A128A110A128A119C230A128A11003003
:100BDE00F3000330F2000D30F1004030F0000A1245
:100BEE008A119F240A128A110A128A1175220A1278
:100BFE008A110030F3000730F200A130F1002030EE
:100C0E00F0000A128A119F240A128A110E2E8312E4
:100C1E0003132008023A0319152E162E8F2D172EA8
:100C2E0008000F30831603139F00033085008601E2
:100C3E008701880183120313860187018801013021
:100C4E000A128A11BC230A128A1102300A128A1160
:100C5E00BC230A128A1106300A128A11BC230A1208
:100C6E008A110C300A128A11BC230A128A113830EA
:100C7E000A128A11BC230A128A1183120313051554
:100C8E00FF308316031392000C3083120313970068
:100C9E000C309D000C308316031397000430831222
:100CAE000313920095019B018316031395015F2E8A
:100CBE00831203130518642E652E882E0130A200B0
:100CCE002208A0072008033A031D6E2E6F2E812ED8
:100CDE00A001812E812E85150030F3000030F20028
:100CEE002730F1001030F0000A128A119F240A12E8
:100CFE008A11812E83120313051C862E872E722EC7
:100D0E00882E85188B2E8C2EBB2E9D2E9D2E8515F6
:100D1E000030F3000030F2002730F1001030F00008
:100D2E000A128A119F240A128A119D2E831203130E
:100D3E00851CA22EA32E8E2EB12EB12E0A128A1132
:100D4E0004250A128A110A128A118E250A128A1194
:100D5E00BB2EBB2E831203132008013A0319A52EB6
:100D6E00033A0319AA2EBB2E8312031385110A12FE
:100D7E008A11C8260A128A115F2E5F2E0A128A1154
:100D8E000028F22FA1010A128A1188220A128A1152
:100D9E0001300A128A11E1220A128A1147300A1210
:100DAE008A112B240A128A1114300A128A11E12296
:100DBE000A128A1108300A128A112B240A128A1179
:100DCE00082F0518EB2EEC2EEE2EFF2FFF2F1C30CA
:100DDE000A128A11BC230A128A110030F300003065
:100DEE00F200C330F1005030F0000A128A119F2435
:100DFE000A128A110130FB007B0883120313A1072C
:100E0E00082F0830831203132102031C0F2F102FFB
:100E1E00E82E302F302F0518152F162F182FFF2FD5
:100E2E00FF2F18300A128A11BC230A128A110030C1
:100E3E00F3000030F200C330F1005030F0000A121F
:100E4E008A119F240A128A11013083120313A10200
:100E5E00302FA108031D342F352F122FFF2FFF2FF8
:100E6E00A1010A128A1188220A128A1100300A126E
:100E7E008A11E1220A128A1101300A128A112B24D8
:100E8E000A128A1116300A128A11E1220A128A11E6
:100E9E001F300A128A112B240A128A11831203138D
:100EAE00051C5A2F5B2FFF2F85185E2F5F2F612F8A
:100EBE00FF2FFF2F1C300A128A11BC230A128A112F
:100ECE000030F3000130F2003830F1008030F000D5
:100EDE000A128A119F240A128A1183120313051C07
:100EEE00792F7A2FFF2F85187D2F7E2F802FFF2FA2
:100EFE00FF2F18300A128A11BC230A128A110030F1
:100F0E00F3000130F2003830F1008030F0000A12A8
:100F1E008A119F240A128A11FF2FA1010A128A1127
:100F2E0088220A128A1100300A128A11E1220A124C
:100F3E008A1101300A128A112B240A128A111630D4
:100F4E000A128A11E1220A128A112B300A128A1110
:100F5E002B240A128A1183120313051CB72FB82FE4
:100F6E00FF2F8518BB2FBC2FBE2FFF2FFF2F1C303E
:100F7E000A128A11BC230A128A110030F3000130C2
:100F8E00F2003830F1008030F0000A128A119F24EE
:100F9E000A128A1183120313051CD62FD72FFF2F87
:100FAE008518DA2FDB2FDD2FFF2FFF2F18300A12B7
:100FBE008A11BC230A128A110030F3000130F200AC
:100FCE003830F1008030F0000A128A119F240A1284
:100FDE008A11FF2FFF2F831203132008003A0319E3
:100FEE00C92E013A0319372F033A0319942FFF2FF5
:020FFE000800E9
:04400E00A23FBC3FD2
:00000001FF
