:100000000A128A115B2A00308A000408840A8207D7
:10001000003443347934743472346F346E342034A1
:1000200046346C3465347834693462346F347434F3
:10003000003441346E347434693463346C346F3456
:1000400063346B3477346934733465340034413449
:100050006C3470346834613420344D346F3464341B
:1000600065343F34003442346534743461342034B0
:100070004D346F34643465343F34003443346C346D
:100080006F3463346B3477346934733465340034DB
:100090004434653467347234653465340034433431
:1000A0007934743472346F346E34003453347434AD
:1000B0006F347034003433343034303400343234FC
:1000C0003134303400343134323430340034333469
:1000D0003334303400343234343430340034313456
:1000E0003534303400343234373430340034313441
:1000F0003834303400343634303400343934303429
:020100000034C9
:1004B600A001A10183010A128A11042E83120313DB
:1004C6000710871107128712861106124E30FD009B
:1004D6007D08FB0008300A128A11BB240A128A1111
:1004E600080001300A128A11A8230A128A11003064
:1004F600F3000030F2000230F1005830F0000A122A
:100506008A118B240A128A110800F00070188C2AAE
:10051600902A831203130714932A831203130710D6
:10052600F0080319972A9B2A8312031387159E2A1C
:100536008312031387110800F0007018A32AA72A54
:10054600831203130716AA2A831203130712F0084D
:100556000319AE2AB22A831203138716B52A831209
:10056600031387120800F000F0080319BB2ABF2AFC
:10057600831203138615C22A831203138611701879
:10058600C52AC92A831203130616CC2A831203131B
:1005960006120800FA0010307A020318D32AD42A69
:1005A600DC2A7A08803E0A128A11A8230A128A11C6
:1005B600E92A7A08EC3EF9007908FA007A08C03E82
:1005C6000A128A11A8230A128A11E92A0800FF30A2
:1005D600831203139B0095008316031395010130C4
:1005E6000A128A1188220A128A1100300A128A1106
:1005F6009F220A128A114030FD007D08FB0055300B
:100606000A128A11BB240A128A110800FF308312CB
:1006160003139B00950083160313950100300A12FD
:100626008A1188220A128A1101300A128A119F221F
:100636000A128A114030FD007D08FB006F300A1255
:100646008A11BB240A128A1108008312031395012A
:10065600FF309B00FF3083160313950000300A120B
:100666008A119F220A128A1101300A128A11B622B1
:100676000A128A114030FD007D08FB005F300A1225
:100686008A11BB240A128A110800FF308312031351
:1006960095009B01FF3083160313950001300A1263
:1006A6008A1188220A128A1100300A128A11B62289
:1006B6000A128A114030FD007D08FB0060300A12E4
:1006C6008A11BB240A128A110800831203139501AA
:1006D600FF309B00FF3083160313950001300A128A
:1006E6008A119F220A128A1100300A128A11B62232
:1006F6000A128A114030FD007D08FB0067300A129D
:100706008A11BB240A128A110800FF3083120313D0
:1007160095009B01FF3083160313950000300A12E3
:100726008A1188220A128A1101300A128A11B62207
:100736000A128A114030FD007D08FB0057300A126C
:100746008A11BB240A128A110800F80083120313C7
:1007560086137808880006170030F3000030F20090
:100766000030F1003230F0000A128A118B240A128E
:100776008A118312031306130030F3000030F200CF
:100786000030F1003230F0000A128A118B240A126E
:100796008A110800F8008312031386177808880068
:1007A60006170030F3000030F2000030F1000A3086
:1007B600F0000A128A118B240A128A11831203137B
:1007C60006130030F3000030F2000030F1000A306A
:1007D600F0000A128A118B240A128A110800FF30CF
:1007E600831603139500831203139B0095000130B3
:1007F6000A128A1188220A128A1101300A128A11F3
:100806009F220A128A1101300A128A11B6220A128E
:100816008A115630FD007D08FB0036300A128A1117
:10082600BB240A128A110800FA002A2C7A088400CE
:100836000A128A1103200A128A110A128A11CD237A
:100846000A128A110130F9007908FA072A2C7A0867
:10085600031D2E2C3C2C7A0884000A128A110320D0
:100866000A128A110038031D392C3A2C192C3C2CFB
:100876003C2C0800BE30831203139500BE309B004B
:10088600FF3083160313950000300A128A1188225E
:100896000A128A1100300A128A119F220A128A113C
:1008A60001300A128A11B6220A128A114030FD005E
:1008B6007D08FB006B300A128A11BB240A128A11CA
:1008C6000800BE30831203139500BE309B00FF3034
:1008D60083160313950001300A128A1188220A1220
:1008E6008A1101300A128A119F220A128A110030D7
:1008F6000A128A11B6220A128A114030FD007D08BA
:10090600FB0076300A128A11BB240A128A110800EB
:100916007308720471047004031D922C932C952C99
:10092600BA2CBA2C0130F4000030F5000030F60085
:100936000030F7007408F0027508031C750FA42C2C
:10094600A52CF1027608031C760FAA2CAB2CF2021A
:100956007708031C770FB02CB12CF30273087204CE
:1009660071047004031DB82CB92C952CBA2C080000
:10097600FC008312031385110518C22CC32CC52C49
:10098600EF2CEF2C0A128A1174220A128A110030F7
:100996000A128A11CD220A128A117C080A128A11B9
:1009A60017240A128A1114300A128A11CD220A1249
:1009B6008A117B080A128A1117240A128A1100303A
:1009C600F3000030F2002730F1001030F0000A1278
:1009D6008A118B240A128A110800702D0A128A11B4
:1009E6003D240A128A110030F3000330F2000D3064
:1009F600F1004030F0000A128A118B240A128A1183
:100A06000A128A11EA220A128A110030F300033010
:100A1600F2000D30F1004030F0000A128A118B24EA
:100A26000A128A110A128A1164240A128A110030E3
:100A3600F3000630F2001A30F1008030F0000A129E
:100A46008A118B240A128A110A128A1109230A12A0
:100A56008A110030F3000330F2000D30F10040300F
:100A6600F0000A128A118B240A128A110A128A11BC
:100A76003D240A128A110030F3000330F2000D30D3
:100A8600F1004030F0000A128A118B240A128A11F2
:100A96000A128A11F2230A128A110030F300013079
:100AA600F2008630F100A030F0000A128A118B2481
:100AB6000A128A110A128A1161220A128A11003058
:100AC600F3000730F200A130F1002030F0000A12E6
:100AD6008A118B240A128A11702D8312031320089F
:100AE600013A0319772D782DF12C792D0800FA2D6E
:100AF6000A128A1128230A128A110030F3000330E1
:100B0600F2000D30F1004030F0000A128A118B24F9
:100B16000A128A110A128A11EA220A128A1100306E
:100B2600F3000330F2000D30F1004030F0000A12FD
:100B36008A118B240A128A110A128A1148230A1270
:100B46008A110030F3000330F2000D30F10040301E
:100B5600F0000A128A118B240A128A110A128A11CB
:100B660068230A128A110030F3000330F2000D30B8
:100B7600F1004030F0000A128A118B240A128A1101
:100B86000A128A1109230A128A110030F30003306F
:100B9600F2000D30F1004030F0000A128A118B2469
:100BA6000A128A110A128A1188230A128A1100303F
:100BB600F3000330F2000D30F1004030F0000A126D
:100BC6008A118B240A128A110A128A1161220A12C8
:100BD6008A110030F3000730F200A130F100203016
:100BE600F0000A128A118B240A128A11FA2D831236
:100BF60003132008023A0319012E022E7B2D032E21
:100C060008000F30831603139F000330850086010A
:100C16008701880183120313860187018801013049
:100C26000A128A11A8230A128A1102300A128A119C
:100C3600A8230A128A1106300A128A11A8230A1258
:100C46008A110C300A128A11A8230A128A11383026
:100C56000A128A11A8230A128A1183120313051590
:100C6600FF308316031392000C3083120313970090
:100C76000C309D000C30831603139700043083124A
:100C86000313920095019B018316031395014B2EC6
:100C9600831203130518502E512E782E0130A20010
:100CA6002208A0072008033A031D5A2E5B2E712E38
:100CB6000310003003180130A000712E712E851527
:100CC6000030F3000030F2002730F1001030F00061
:100CD6000A128A118B240A128A11712E83120313A7
:100CE600051C762E772E622E782E85187B2E7C2E6E
:100CF600AB2E8D2E8D2E85150030F3000030F200C0
:100D06002730F1001030F0000A128A118B240A12E3
:100D16008A118D2E83120313851C922E932E7E2EFE
:100D2600A12EA12E0A128A11F0240A128A110A1281
:100D36008A117A250A128A11AB2EAB2E831203135F
:100D46002008013A0319952E033A03199A2EAB2E61
:100D56008312031385110A128A11B8260A128A1100
:100D66004B2E4B2E0A128A110028F22F0310003048
:100D76000318013083120313A1000A128A11742288
:100D86000A128A1101300A128A11CD220A128A1118
:100D960047300A128A1117240A128A1114300A12CD
:100DA6008A11CD220A128A1108300A128A111724D2
:100DB6000A128A11FE2E0518E12EE22EE42EFF2FCE
:100DC600FF2F1C300A128A11A8230A128A1100303A
:100DD600F3000030F200C330F1005030F0000A1288
:100DE6008A118B240A128A110130FB007B088312B8
:100DF6000313A107FE2E0830831203132102031CDE
:100E0600052F062FDE2E262F262F05180B2F0C2F2B
:100E16000E2FFF2FFF2F18300A128A11A8230A124D
:100E26008A110030F3000030F200C330F100503078
:100E3600F0000A128A118B240A128A1101308312D9
:100E46000313A102262FA108031D2A2F2B2F082FDB
:100E5600FF2FFF2F0310003003180130A1000A12E4
:100E66008A1174220A128A1100300A128A11CD22BE
:100E76000A128A1101300A128A1117240A128A11DB
:100E860016300A128A11CD220A128A111F300A124E
:100E96008A1117240A128A1183120313051C542F70
:100EA600552FFF2F8518582F592F5B2FFF2FFF2FF8
:100EB6001C300A128A11A8230A128A110030F30084
:100EC6000130F2003830F1008030F0000A128A1149
:100ED6008B240A128A1183120313051C732F742F95
:100EE600FF2F8518772F782F7A2FFF2FFF2F183097
:100EF6000A128A11A8230A128A110030F30001305F
:100F0600F2003830F1008030F0000A128A118B248A
:100F16000A128A11FF2F03100030031801308312C2
:100F26000313A1000A128A1174220A128A110030D0
:100F36000A128A11CD220A128A1101300A128A1166
:100F460017240A128A1116300A128A11CD220A12A1
:100F56008A112B300A128A1117240A128A11831257
:100F66000313051CB72FB82FFF2F8518BB2FBC2FD7
:100F7600BE2FFF2FFF2F1C300A128A11A8230A1238
:100F86008A110030F3000130F2003830F100803071
:100F9600F0000A128A118B240A128A118312031393
:100FA600051CD62FD72FFF2F8518DA2FDB2FDD2F25
:100FB600FF2FFF2F18300A128A11A8230A128A114E
:100FC6000030F3000130F2003830F1008030F000DC
:100FD6000A128A118B240A128A11FF2FFF2F8312FD
:100FE60003132008003A0319B92E013A03192D2FCD
:0A0FF600033A03198E2FFF2F0800A5
:04400E00A23FBC3FD2
:00000001FF
