:100000000A128A11FA2F00308A000408840A820733
:10001000003443347934743472346F346E342034A1
:1000200046346C3465347834693462346F347434F3
:10003000003441346E347434693463346C346F3456
:1000400063346B3477346934733465340034413449
:100050006C3470346834613420344D346F3464341B
:1000600065343F34003442346534743461342034B0
:100070004D346F34643465343F34003443346C346D
:100080006F3463346B3477346934733465340034DB
:100090004434653467347234653465340034433431
:1000A0007934743472346F346E34003453347434AD
:1000B0006F347034003433343034303400343234FC
:1000C0003134303400343134323430340034333469
:1000D0003334303400343234343430340034313456
:1000E0003534303400343234373430340034313441
:1000F0003834303400343634303400343934303429
:020100000034C9
:1005F8008312031307108711071287128611061238
:100608004E30FD007D08FB0008300A128A111B25B8
:10061800080001300A128A1168240A128A1100306F
:10062800F3000030F2000230F1005830F0000A12F6
:100638008A1145240800F0007008031D272B831237
:10064800031386152A2B831203138611701C302B73
:1006580083120313061608008312031306120800F8
:10066800F000701C3B2B8312031307143E2B8312DC
:10067800031307107008031D452B831203138715F6
:1006880008008312031387110800F000701C502B18
:10069800831203130716532B8312031307127008D0
:1006A800031D5A2B831203138716080083120313A2
:1006B80087120800FA0010307A020318692B7A08AA
:1006C800803E0A128A11682408007A08EC3EF90074
:1006D8007908FA007A08C03E0A128A1168240800CC
:1006E800FF30831203139B009500831603139501B3
:1006F80001300A128A1134230A128A1100300A12B0
:100708008A1149230A128A114030FD007D08FB0036
:1007180055300A128A111B250800FF308312031373
:100728009B00950083160313950100300A128A1165
:1007380034230A128A1101300A128A1149230A1233
:100748008A114030FD007D08FB006F300A128A11C3
:100758001B250800831203139501FF309B00FF300F
:1007680083160313950001300A128A1149230A12CD
:100778008A1100300A128A111F230A128A11403086
:10078800FD007D08FB0067300A128A111B2508004E
:10079800FF308312031395009B01FF308316031368
:1007A800950000300A128A1134230A128A11013086
:1007B8000A128A111F230A128A114030FD007D088F
:1007C800FB0057300A128A111B250800FF308312DC
:1007D800031395009B01FF30831603139500013026
:1007E8000A128A1134230A128A1100300A128A1155
:1007F8001F230A128A114030FD007D08FB0060307B
:100808000A128A111B250800831203139501FF3071
:100818009B00FF3083160313950000300A128A11DB
:1008280049230A128A1101300A128A111F230A1257
:100838008A114030FD007D08FB005F300A128A11E2
:100848001B250800FA007A08031908007A088400B2
:100858000A128A1103200A128A11003A03190800A1
:100868007A0884000A128A1103200A128A110A12CD
:100878008A118B240A128A110130F9007908FA07C3
:10088800272C7308720471047004031908000130DE
:10089800F4000030F5000030F6000030F70074086E
:1008A800F0027508031C750F5A2C5B2CF1027608B0
:1008B800031C760F602C612CF2027708031C770F5B
:1008C800662C452CF302452CF8008312031386137B
:1008D8007808880006170030F3000030F200003076
:1008E800F1003230F0000A128A1145240A128A11E6
:1008F8008312031306130030F3000030F2000030B7
:10090800F1003230F0000A128A1145240800F8007C
:100918008312031386177808880006170030F3003F
:100928000030F2000030F1000A30F0000A128A119B
:1009380045240A128A118312031306130030F300A8
:100948000030F2000030F1000A30F0000A128A117B
:1009580045240800FF308316031395008312031300
:100968009B00950001300A128A1134230A128A1159
:1009780001300A128A1149230A128A1101300A1217
:100988008A111F230A128A115630FD007D08FB00C8
:1009980036300A128A111B250800BE308312031351
:1009A8009500BE309B00FF3083160313950000307E
:1009B8000A128A1134230A128A1100300A128A1183
:1009C80049230A128A1101300A128A111F230A12B6
:1009D8008A114030FD007D08FB006B300A128A1135
:1009E8001B250800BE30831203139500BE309B0000
:1009F800FF3083160313950001300A128A1134233D
:100A08000A128A1101300A128A1149230A128A111C
:100A180000300A128A111F230A128A114030FD0081
:100A28007D08FB0076300A128A111B250800FC009D
:100A3800831203138511051C08000A128A110D235D
:100A48000A128A1100300A128A115E230A128A11C8
:100A58007C080A128A1126240A128A1114300A12F2
:100A68008A115E230A128A117B080A128A11262427
:100A78000A128A110030F3000030F2002730F1002A
:100A88001030F0000A128A1145240800831203135B
:100A98002003031D08000A128A11D1240A128A11A0
:100AA8000030F3000330F2000D30F1004030F00068
:100AB8000A128A1145240A128A110A128A11742309
:100AC8000A128A110030F3000330F2000D30F100F1
:100AD8004030F0000A128A1145240A128A110A12BB
:100AE8008A11F6240A128A110030F3000630F20047
:100AF8001A30F1008030F0000A128A1145240A12D7
:100B08008A110A128A1191230A128A110030F300FD
:100B18000330F2000D30F1004030F0000A128A1163
:100B280045240A128A110A128A11D1240A128A113A
:100B38000030F3000330F2000D30F1004030F000D7
:100B48000A128A1145240A128A110A128A11AE243D
:100B58000A128A110030F3000130F2008630F100E9
:100B6800A030F0000A128A1145240A128A110A12CA
:100B78008A11FC220A128A110030F3000730F200B1
:100B8800A130F1002030F0000A128A1145240A121F
:100B98008A114A2D0230831203132006031D080010
:100BA8000A128A1108240A128A110030F30003304D
:100BB800F2000D30F1004030F0000A128A1145248D
:100BC8000A128A110A128A1174230A128A11003031
:100BD800F3000330F2000D30F1004030F0000A124B
:100BE8008A1145240A128A110A128A11EA230A1262
:100BF8008A110030F3000330F2000D30F10040306C
:100C0800F0000A128A1145240A128A110A128A115E
:100C1800AE230A128A110030F3000330F2000D30BF
:100C2800F1004030F0000A128A1145240A128A1194
:100C38000A128A1191230A128A110030F300033034
:100C4800F2000D30F1004030F0000A128A114524FC
:100C58000A128A110A128A11CC230A128A11003048
:100C6800F3000330F2000D30F1004030F0000A12BA
:100C78008A1145240A128A110A128A11FC220A12C0
:100C88008A110030F3000730F200A130F100203063
:100C9800F0000A128A1145240A128A11CE2D0F304B
:100CA800831603139F00033085008601870188019E
:100CB8008312031386018701880101300A128A1101
:100CC80068240A128A1102300A128A1168240A1248
:100CD8008A1106300A128A1168240A128A110C3005
:100CE8000A128A1168240A128A1138300A128A11E3
:100CF80068240A128A11831203130515FF3083161C
:100D0800031392000C308312031397000C309D00DC
:100D18000C308316031397000430831203139200D8
:100D280095019B018316031395018312031305187C
:100D3800B82E0130A2002208A007033020060319AC
:100D4800A001831203130518B82E85150030F3008F
:100D58000030F2002730F1001030F0000A128A113A
:100D680045240A128A11A52E851CC92EE32E851545
:100D78000030F3000030F2002730F1001030F000AE
:100D88000A128A1145240A128A118312031385183C
:100D9800D92EBB2E0A128A114A250A128A110A1262
:100DA8008A11CE250A128A11E32E83120313200812
:100DB800013A0319CE2E033A0319D32EE32E8312D8
:100DC800031385110A128A11EC260A128A11992E28
:100DD800EC2F83120313A1010A128A110D230A12A0
:100DE8008A1101300A128A115E230A128A114730C9
:100DF8000A128A1126240A128A1114300A128A1138
:100E08005E230A128A1108300A128A1126240A124D
:100E18008A1108308312031321020318482F051C76
:100E280008001C300A128A1168240A128A1100303C
:100E3800F3000030F200C330F1005030F0000A1225
:100E48008A1145240A128A110130FB007B0883129B
:100E58000313A1070D2F051C080018300A128A1168
:100E680068240A128A110030F3000030F200C330FF
:100E7800F1005030F0000A128A1145240A128A1132
:100E8800013083120313A1022108031908002F2F30
:100E9800A1010A128A110D230A128A1100300A12BE
:100EA8008A115E230A128A1101300A128A11262435
:100EB8000A128A1116300A128A115E230A128A113E
:100EC8001F300A128A1126240A128A118312031368
:100ED800051C0800851C08001C300A128A116824A9
:100EE8000A128A110030F3000130F2003830F100A4
:100EF8008030F0000A128A1145240A128A118312DE
:100F08000313051C0800851C080018300A128A11F2
:100F180068240A128A110030F3000130F2003830D8
:100F2800F1008030F0000A128A114524080083126B
:100F38000313A1010A128A110D230A128A11003023
:100F48000A128A115E230A128A1101300A128A11C2
:100F580026240A128A1116300A128A115E230A12EE
:100F68008A112B300A128A1126240A128A11831236
:100F78000313051C0800851C08001C300A128A117E
:100F880068240A128A110030F3000130F200383068
:100F9800F1008030F0000A128A1145240A128A11E1
:100FA80083120313051C0800851C080018300A1258
:100FB8008A1168240A128A110030F3000130F20005
:100FC8003830F1008030F0000A128A1145240800F8
:100FD800831203132008003A0319ED2E013A03196E
:100FE8004C2F033A03199B2FF92F0800A001A101E8
:080FF80083010A128A11532E35
:04400E00FFFFFFFFB2
:00000001FF
